{
  "_format": "hh-sol-artifact-1",
  "contractName": "Yasuke",
  "sourceName": "contracts/Yasuke.sol",
  "abi": [
    {
      "inputs": [
        {
          "internalType": "address",
          "name": "storeAddress",
          "type": "address"
        }
      ],
      "stateMutability": "nonpayable",
      "type": "constructor"
    },
    {
      "anonymous": false,
      "inputs": [
        {
          "indexed": true,
          "internalType": "address",
          "name": "",
          "type": "address"
        },
        {
          "indexed": true,
          "internalType": "uint256",
          "name": "",
          "type": "uint256"
        }
      ],
      "name": "LogBid",
      "type": "event"
    },
    {
      "anonymous": false,
      "inputs": [],
      "name": "LogCanceled",
      "type": "event"
    },
    {
      "anonymous": false,
      "inputs": [
        {
          "indexed": true,
          "internalType": "address",
          "name": "",
          "type": "address"
        },
        {
          "indexed": true,
          "internalType": "uint256",
          "name": "",
          "type": "uint256"
        },
        {
          "indexed": true,
          "internalType": "uint256",
          "name": "",
          "type": "uint256"
        }
      ],
      "name": "LogWithdrawal",
      "type": "event"
    },
    {
      "anonymous": false,
      "inputs": [
        {
          "indexed": true,
          "internalType": "address",
          "name": "",
          "type": "address"
        },
        {
          "indexed": true,
          "internalType": "uint256",
          "name": "",
          "type": "uint256"
        }
      ],
      "name": "OnSale",
      "type": "event"
    },
    {
      "anonymous": false,
      "inputs": [
        {
          "indexed": true,
          "internalType": "address",
          "name": "",
          "type": "address"
        },
        {
          "indexed": true,
          "internalType": "address",
          "name": "",
          "type": "address"
        },
        {
          "indexed": true,
          "internalType": "uint256",
          "name": "",
          "type": "uint256"
        },
        {
          "indexed": false,
          "internalType": "uint256",
          "name": "",
          "type": "uint256"
        }
      ],
      "name": "Sold",
      "type": "event"
    },
    {
      "inputs": [
        {
          "internalType": "uint256",
          "name": "tokenId",
          "type": "uint256"
        },
        {
          "internalType": "uint256",
          "name": "auctionId",
          "type": "uint256"
        }
      ],
      "name": "endBid",
      "outputs": [],
      "stateMutability": "nonpayable",
      "type": "function"
    },
    {
      "inputs": [
        {
          "internalType": "uint256",
          "name": "tokenId",
          "type": "uint256"
        },
        {
          "internalType": "uint256",
          "name": "auctionId",
          "type": "uint256"
        }
      ],
      "name": "getAuctionInfo",
      "outputs": [
        {
          "components": [
            {
              "internalType": "uint256",
              "name": "auctionId",
              "type": "uint256"
            },
            {
              "internalType": "uint256",
              "name": "tokenId",
              "type": "uint256"
            },
            {
              "internalType": "address",
              "name": "owner",
              "type": "address"
            },
            {
              "internalType": "uint256",
              "name": "startBlock",
              "type": "uint256"
            },
            {
              "internalType": "uint256",
              "name": "endBlock",
              "type": "uint256"
            },
            {
              "internalType": "uint256",
              "name": "currentBlock",
              "type": "uint256"
            },
            {
              "internalType": "uint256",
              "name": "sellNowPrice",
              "type": "uint256"
            },
            {
              "internalType": "address",
              "name": "highestBidder",
              "type": "address"
            },
            {
              "internalType": "uint256",
              "name": "highestBid",
              "type": "uint256"
            },
            {
              "internalType": "bool",
              "name": "cancelled",
              "type": "bool"
            },
            {
              "internalType": "uint256",
              "name": "minimumBid",
              "type": "uint256"
            },
            {
              "internalType": "address[]",
              "name": "bidders",
              "type": "address[]"
            },
            {
              "internalType": "uint256[]",
              "name": "bids",
              "type": "uint256[]"
            },
            {
              "internalType": "bool",
              "name": "started",
              "type": "bool"
            },
            {
              "internalType": "bool",
              "name": "finished",
              "type": "bool"
            },
            {
              "internalType": "bool",
              "name": "sellNowTriggered",
              "type": "bool"
            }
          ],
          "internalType": "struct Models.AuctionInfo",
          "name": "",
          "type": "tuple"
        }
      ],
      "stateMutability": "view",
      "type": "function"
    },
    {
      "inputs": [
        {
          "internalType": "uint256",
          "name": "tokenId",
          "type": "uint256"
        }
      ],
      "name": "getTokenInfo",
      "outputs": [
        {
          "components": [
            {
              "internalType": "uint256",
              "name": "tokenId",
              "type": "uint256"
            },
            {
              "internalType": "address",
              "name": "owner",
              "type": "address"
            },
            {
              "internalType": "address",
              "name": "issuer",
              "type": "address"
            },
            {
              "internalType": "address",
              "name": "contractAddress",
              "type": "address"
            },
            {
              "internalType": "string",
              "name": "symbol",
              "type": "string"
            },
            {
              "internalType": "string",
              "name": "name",
              "type": "string"
            },
            {
              "internalType": "bool",
              "name": "onAuction",
              "type": "bool"
            },
            {
              "internalType": "bool",
              "name": "onSale",
              "type": "bool"
            },
            {
              "internalType": "uint256",
              "name": "price",
              "type": "uint256"
            }
          ],
          "internalType": "struct Models.Asset",
          "name": "",
          "type": "tuple"
        }
      ],
      "stateMutability": "view",
      "type": "function"
    },
    {
      "inputs": [
        {
          "internalType": "uint256",
          "name": "tokenId",
          "type": "uint256"
        },
        {
          "internalType": "address payable",
          "name": "owner",
          "type": "address"
        },
        {
          "internalType": "string",
          "name": "_uri",
          "type": "string"
        },
        {
          "internalType": "string",
          "name": "_name",
          "type": "string"
        },
        {
          "internalType": "string",
          "name": "_symbol",
          "type": "string"
        }
      ],
      "name": "issueToken",
      "outputs": [],
      "stateMutability": "nonpayable",
      "type": "function"
    },
    {
      "inputs": [
        {
          "internalType": "uint256",
          "name": "tokenId",
          "type": "uint256"
        },
        {
          "internalType": "uint256",
          "name": "auctionId",
          "type": "uint256"
        }
      ],
      "name": "placeBid",
      "outputs": [],
      "stateMutability": "payable",
      "type": "function"
    },
    {
      "inputs": [
        {
          "internalType": "uint256",
          "name": "perc",
          "type": "uint256"
        }
      ],
      "name": "setIssuerFeesPercentage",
      "outputs": [],
      "stateMutability": "nonpayable",
      "type": "function"
    },
    {
      "inputs": [
        {
          "internalType": "address payable",
          "name": "add",
          "type": "address"
        }
      ],
      "name": "setXendFeesAddress",
      "outputs": [],
      "stateMutability": "nonpayable",
      "type": "function"
    },
    {
      "inputs": [
        {
          "internalType": "uint256",
          "name": "tokenId",
          "type": "uint256"
        },
        {
          "internalType": "uint256",
          "name": "auctionId",
          "type": "uint256"
        }
      ],
      "name": "shouldBeStarted",
      "outputs": [],
      "stateMutability": "view",
      "type": "function"
    },
    {
      "inputs": [
        {
          "internalType": "uint256",
          "name": "tokenId",
          "type": "uint256"
        },
        {
          "internalType": "uint256",
          "name": "auctionId",
          "type": "uint256"
        },
        {
          "internalType": "uint256",
          "name": "startBlock",
          "type": "uint256"
        },
        {
          "internalType": "uint256",
          "name": "endBlock",
          "type": "uint256"
        },
        {
          "internalType": "uint256",
          "name": "currentBlock",
          "type": "uint256"
        },
        {
          "internalType": "uint256",
          "name": "sellNowPrice",
          "type": "uint256"
        },
        {
          "internalType": "uint256",
          "name": "minimumBid",
          "type": "uint256"
        }
      ],
      "name": "startAuction",
      "outputs": [],
      "stateMutability": "nonpayable",
      "type": "function"
    },
    {
      "inputs": [
        {
          "internalType": "uint256",
          "name": "tokenId",
          "type": "uint256"
        },
        {
          "internalType": "uint256",
          "name": "auctionId",
          "type": "uint256"
        }
      ],
      "name": "withdraw",
      "outputs": [],
      "stateMutability": "nonpayable",
      "type": "function"
    }
  ],
  "bytecode": "0x6080604052600380546001600160a01b03191661dead1790553480156200002557600080fd5b506040516200521b3803806200521b8339810160408190526200004891620000d8565b6001600081905580546001600160a01b031990811633908117909255600280546001600160a01b03851692168217905560405163c55b6bb760e01b815230600482015260248101929092529063c55b6bb790604401600060405180830381600087803b158015620000b857600080fd5b505af1158015620000cd573d6000803e3d6000fd5b505050505062000108565b600060208284031215620000ea578081fd5b81516001600160a01b038116811462000101578182fd5b9392505050565b61510380620001186000396000f3fe6080604052600436106200009d5760003560e01c80638c7a63ae11620000605780638c7a63ae14620001675780638d8b6501146200019b578063b675664214620001c0578063b76536fd14620001e5578063c0b49c70146200020a57600080fd5b806316d015aa14620000a25780631edd33d414620000c9578063441a3e7014620000ee5780634798c656146200011357806357c90de51462000150575b600080fd5b348015620000af57600080fd5b50620000c7620000c1366004620032d7565b6200022f565b005b348015620000d657600080fd5b50620000c7620000e8366004620032d7565b620005df565b348015620000fb57600080fd5b50620000c76200010d366004620032d7565b620006d4565b3480156200012057600080fd5b506200013862000132366004620032d7565b62000714565b60405162000147919062003567565b60405180910390f35b620000c762000161366004620032d7565b62000843565b3480156200017457600080fd5b506200018c62000186366004620031f8565b620010df565b60405162000147919062003498565b348015620001a857600080fd5b50620000c7620001ba3660046200322a565b620015cb565b348015620001cd57600080fd5b50620000c7620001df366004620032f9565b620017cb565b348015620001f257600080fd5b50620000c76200020436600462002f66565b62001cb1565b3480156200021757600080fd5b50620000c762000229366004620031f8565b62001d62565b600254604051635646942560e01b815260048101849052602481018390526001600160a01b039091169063564694259060440160206040518083038186803b1580156200027b57600080fd5b505afa15801562000290573d6000803e3d6000fd5b505050506040513d601f19601f82011682018060405250810190620002b6919062003211565b431015620002f15760405162461bcd60e51b8152602060048201526003602482015262414e4360e81b60448201526064015b60405180910390fd5b60025460405163243df89360e21b815260048101849052602481018390526001600160a01b03909116906390f7e24c9060440160206040518083038186803b1580156200033d57600080fd5b505afa15801562000352573d6000803e3d6000fd5b505050506040513d601f19601f8201168201806040525081019062000378919062003211565b431115620003ae5760405162461bcd60e51b8152602060048201526002602482015261414560f01b6044820152606401620002e8565b6002546040516330737aa960e11b815260048101849052602481018390526001600160a01b03909116906360e6f5529060440160206040518083038186803b158015620003fa57600080fd5b505afa1580156200040f573d6000803e3d6000fd5b505050506040513d601f19601f8201168201806040525081019062000435919062002ff3565b15620004695760405162461bcd60e51b8152602060048201526002602482015261414360f01b6044820152606401620002e8565b60025460405163f7336fb160e01b815260048101849052602481018390526001600160a01b039091169063f7336fb19060440160206040518083038186803b158015620004b557600080fd5b505afa158015620004ca573d6000803e3d6000fd5b505050506040513d601f19601f82011682018060405250810190620004f0919062002ff3565b620005245760405162461bcd60e51b8152602060048201526003602482015262414e5360e81b6044820152606401620002e8565b60025460405163c3c5efaf60e01b8152600481018490526001600160a01b039091169063c3c5efaf9060240160206040518083038186803b1580156200056957600080fd5b505afa1580156200057e573d6000803e3d6000fd5b505050506040513d601f19601f82011682018060405250810190620005a4919062002ff3565b620005db5760405162461bcd60e51b8152600401620002e8906020808252600490820152630414e49560e41b604082015260600190565b5050565b60026000541415620006055760405162461bcd60e51b8152600401620002e89062003461565b60026000556001546001600160a01b03163314620006525760405162461bcd60e51b81526020600482015260096024820152686e6f2061636365737360b81b6044820152606401620002e8565b6200065e82826200022f565b60025460405163bf9fde0360e01b815260048101849052602481018390524360448201526001600160a01b039091169063bf9fde0390606401600060405180830381600087803b158015620006b257600080fd5b505af1158015620006c7573d6000803e3d6000fd5b5050600160005550505050565b60026000541415620006fa5760405162461bcd60e51b8152600401620002e89062003461565b60026000556200070b828262001de0565b50506001600055565b620007af604051806102000160405280600081526020016000815260200160006001600160a01b031681526020016000815260200160008152602001600081526020016000815260200160006001600160a01b03168152602001600081526020016000151581526020016000815260200160608152602001606081526020016000151581526020016000151581526020016000151581525090565b6002546040516301f2835960e71b815260048101859052602481018490526000916001600160a01b03169063f941ac809060440160006040518083038186803b158015620007fc57600080fd5b505afa15801562000811573d6000803e3d6000fd5b505050506040513d6000823e601f3d908101601f191682016040526200083b91908101906200308c565b949350505050565b60026000541415620008695760405162461bcd60e51b8152600401620002e89062003461565b6002600055323314620008905760405162461bcd60e51b8152600401620002e89062003444565b600254604051631c96a19760e31b8152600481018490526000916001600160a01b03169063e4b50cb89060240160206040518083038186803b158015620008d657600080fd5b505afa158015620008eb573d6000803e3d6000fd5b505050506040513d601f19601f8201168201806040525081019062000911919062002f47565b90506200091f83836200022f565b600034116200095a5760405162461bcd60e51b8152600401620002e8906020808252600490820152630434e42360e41b604082015260600190565b6040516331a9108f60e11b8152600481018490526001600160a01b03821690636352211e9060240160206040518083038186803b1580156200099b57600080fd5b505afa158015620009b0573d6000803e3d6000fd5b505050506040513d601f19601f82011682018060405250810190620009d6919062002f47565b6001600160a01b0316336001600160a01b0316141562000a1f5760405162461bcd60e51b815260206004820152600360248201526227a1a160e91b6044820152606401620002e8565b600254604051630d9d2f1d60e11b815260048101859052602481018490526000916001600160a01b031690631b3a5e3a9060440160206040518083038186803b15801562000a6c57600080fd5b505afa15801562000a81573d6000803e3d6000fd5b505050506040513d601f19601f8201168201806040525081019062000aa7919062003211565b90503481811080159062000aba57508115155b1562000c515760025460405163bf9fde0360e01b815260048101879052602481018690524360448201526001600160a01b039091169063bf9fde0390606401600060405180830381600087803b15801562000b1457600080fd5b505af115801562000b29573d6000803e3d6000fd5b50505050600062000b4483836200251090919063ffffffff16565b9050801562000bd95760405160009033906108fc90849084818181858888f193505050503d806000811462000b96576040519150601f19603f3d011682016040523d82523d6000602084013e62000b9b565b606091505b505090508062000bd75760405162461bcd60e51b8152600401620002e890602080825260049082015263212326a160e11b604082015260600190565b505b6002546040516345db891160e11b81526004810188905260248101879052600160448201528493506001600160a01b0390911690638bb7122290606401600060405180830381600087803b15801562000c3157600080fd5b505af115801562000c46573d6000803e3d6000fd5b505050505062000d0e565b6002546040516370f3e77b60e11b815260048101879052602481018690526001600160a01b039091169063e1e7cef69060440160206040518083038186803b15801562000c9d57600080fd5b505afa15801562000cb2573d6000803e3d6000fd5b505050506040513d601f19601f8201168201806040525081019062000cd8919062003211565b811162000d0e5760405162461bcd60e51b815260206004820152600360248201526210951360ea1b6044820152606401620002e8565b600254604051634b4a39b960e01b815260048101879052602481018690526000916001600160a01b031690634b4a39b99060440160206040518083038186803b15801562000d5b57600080fd5b505afa15801562000d70573d6000803e3d6000fd5b505050506040513d601f19601f8201168201806040525081019062000d96919062002f47565b6002546040516370f3e77b60e11b815260048101899052602481018890529192506000916001600160a01b039091169063e1e7cef69060440160206040518083038186803b15801562000de857600080fd5b505afa15801562000dfd573d6000803e3d6000fd5b505050506040513d601f19601f8201168201806040525081019062000e23919062003211565b90506001600160a01b0382161562000ecc576000826001600160a01b0316826108fc90604051600060405180830381858888f193505050503d806000811462000e89576040519150601f19603f3d011682016040523d82523d6000602084013e62000e8e565b606091505b505090508062000eca5760405162461bcd60e51b8152600401620002e8906020808252600490820152632421292360e11b604082015260600190565b505b60025460405163132b3edb60e11b815260048101899052602481018890523360448201526001600160a01b03909116906326567db690606401600060405180830381600087803b15801562000f2057600080fd5b505af115801562000f35573d6000803e3d6000fd5b505060025460405163d2aa418760e01b8152600481018b9052602481018a9052604481018790526001600160a01b03909116925063d2aa41879150606401600060405180830381600087803b15801562000f8e57600080fd5b505af115801562000fa3573d6000803e3d6000fd5b5050600254604051630b54303b60e41b8152600481018b9052602481018a90523360448201526001600160a01b03909116925063b54303b09150606401600060405180830381600087803b15801562000ffb57600080fd5b505af115801562001010573d6000803e3d6000fd5b5050600254604051631db33eaf60e11b8152600481018b9052602481018a9052604481018790526001600160a01b039091169250633b667d5e9150606401600060405180830381600087803b1580156200106957600080fd5b505af11580156200107e573d6000803e3d6000fd5b50506040518592503391507f5331b3a4532c2507900f549683f076c051f92222c177b52f82f140d8667d3ebf90600090a3838310158015620010bf57508315155b15620010d157620010d1878762001de0565b505060016000555050505050565b604080516101208101825260008082526020820181905291810182905260608082018390526080820181905260a082015260c0810182905260e08101829052610100810191909152600254604051631c96a19760e31b8152600481018490526000916001600160a01b03169063e4b50cb89060240160206040518083038186803b1580156200116d57600080fd5b505afa15801562001182573d6000803e3d6000fd5b505050506040513d601f19601f82011682018060405250810190620011a8919062002f47565b90506001600160a01b038116620011eb5760405162461bcd60e51b8152600401620002e8906020808252600490820152632a24a72360e11b604082015260600190565b60025460405163c3c5efaf60e01b8152600481018590526000916001600160a01b03169063c3c5efaf9060240160206040518083038186803b1580156200123157600080fd5b505afa15801562001246573d6000803e3d6000fd5b505050506040513d601f19601f820116820180604052508101906200126c919062002ff3565b6002546040516333afbf9d60e01b8152600481018790529192506000916001600160a01b03909116906333afbf9d9060240160206040518083038186803b158015620012b757600080fd5b505afa158015620012cc573d6000803e3d6000fd5b505050506040513d601f19601f82011682018060405250810190620012f2919062002ff3565b600254604051631b6895af60e01b8152600481018890529192506000916001600160a01b0390911690631b6895af9060240160206040518083038186803b1580156200133d57600080fd5b505afa15801562001352573d6000803e3d6000fd5b505050506040513d601f19601f8201168201806040525081019062001378919062003211565b90506000604051806101200160405280888152602001866001600160a01b0316636352211e8a6040518263ffffffff1660e01b8152600401620013bd91815260200190565b60206040518083038186803b158015620013d657600080fd5b505afa158015620013eb573d6000803e3d6000fd5b505050506040513d601f19601f8201168201806040525081019062001411919062002f47565b6001600160a01b03168152602001866001600160a01b031663525564216040518163ffffffff1660e01b815260040160206040518083038186803b1580156200145957600080fd5b505afa1580156200146e573d6000803e3d6000fd5b505050506040513d601f19601f8201168201806040525081019062001494919062002f47565b6001600160a01b03168152602001866001600160a01b03168152602001866001600160a01b03166306fdde036040518163ffffffff1660e01b815260040160006040518083038186803b158015620014eb57600080fd5b505afa15801562001500573d6000803e3d6000fd5b505050506040513d6000823e601f3d908101601f191682016040526200152a919081019062003010565b8152602001866001600160a01b03166395d89b416040518163ffffffff1660e01b815260040160006040518083038186803b1580156200156957600080fd5b505afa1580156200157e573d6000803e3d6000fd5b505050506040513d6000823e601f3d908101601f19168201604052620015a8919081019062003010565b815294151560208601529215156040850152506060909201919091529392505050565b60026000541415620015f15760405162461bcd60e51b8152600401620002e89062003461565b60026000819055506000848484846040516200160d9062002ddf565b6200161c9493929190620033e9565b604051809103906000f08015801562001639573d6000803e3d6000fd5b5060405163140e25ad60e31b8152600481018890529091506001600160a01b0382169063a0712d6890602401602060405180830381600087803b1580156200168057600080fd5b505af115801562001695573d6000803e3d6000fd5b505050506040513d601f19601f82011682018060405250810190620016bb919062002ff3565b620016ee5760405162461bcd60e51b815260206004820152600260248201526126a360f11b6044820152606401620002e8565b600254604051632b80b58560e11b8152600481018890526001600160a01b038381166024830152909116906357016b0a90604401600060405180830381600087803b1580156200173d57600080fd5b505af115801562001752573d6000803e3d6000fd5b5050600254604051637fd3924760e01b8152600481018a90526001600160a01b0389811660248301529091169250637fd392479150604401600060405180830381600087803b158015620017a557600080fd5b505af1158015620017ba573d6000803e3d6000fd5b505060016000555050505050505050565b60026000541415620017f15760405162461bcd60e51b8152600401620002e89062003461565b600260008181559054604051631c96a19760e31b8152600481018a90526001600160a01b039091169063e4b50cb89060240160206040518083038186803b1580156200183c57600080fd5b505afa15801562001851573d6000803e3d6000fd5b505050506040513d601f19601f8201168201806040525081019062001877919062002f47565b6040516331a9108f60e11b8152600481018a905290915033906001600160a01b03831690636352211e9060240160206040518083038186803b158015620018bd57600080fd5b505afa158015620018d2573d6000803e3d6000fd5b505050506040513d601f19601f82011682018060405250810190620018f8919062002f47565b6001600160a01b031614620019355760405162461bcd60e51b8152602060048201526002602482015261574f60f01b6044820152606401620002e8565b60025460405163c3c5efaf60e01b8152600481018a90526001600160a01b039091169063c3c5efaf9060240160206040518083038186803b1580156200197a57600080fd5b505afa1580156200198f573d6000803e3d6000fd5b505050506040513d601f19601f82011682018060405250810190620019b5919062002ff3565b15620019ea5760405162461bcd60e51b815260206004820152600360248201526204149560ec1b6044820152606401620002e8565b60025460405163f7336fb160e01b8152600481018a9052602481018990526001600160a01b039091169063f7336fb19060440160206040518083038186803b15801562001a3657600080fd5b505afa15801562001a4b573d6000803e3d6000fd5b505050506040513d601f19601f8201168201806040525081019062001a71919062002ff3565b1562001aa65760405162461bcd60e51b815260206004820152600360248201526241415360e81b6044820152606401620002e8565b6040805161020081018252888152602081018a90523381830152606081018890526080810187905260a0810186905260c08101859052600060e082018190526101008201819052610120820181905261014082018590526002549251631150516160e31b8152600481018c9052602481018b905290926101608301916001600160a01b0390911690638a828b089060440160006040518083038186803b15801562001b5057600080fd5b505afa15801562001b65573d6000803e3d6000fd5b505050506040513d6000823e601f3d908101601f1916820160405262001b8f919081019062002f85565b8152600254604051634328a71360e11b8152600481018d9052602481018c90526020909201916001600160a01b03909116906386514e269060440160006040518083038186803b15801562001be357600080fd5b505afa15801562001bf8573d6000803e3d6000fd5b505050506040513d6000823e601f3d908101601f1916820160405262001c22919081019062002fbc565b815260016020820152600060408083018290526060909201526002549051639057c06360e01b81529192506001600160a01b031690639057c0639062001c6d90849060040162003567565b600060405180830381600087803b15801562001c8857600080fd5b505af115801562001c9d573d6000803e3d6000fd5b505060016000555050505050505050505050565b6001546001600160a01b0316331462001cfd5760405162461bcd60e51b815260206004820152600d60248201526c1858d8d95cdcc819195b9a5959609a1b6044820152606401620002e8565b60025460405163b76536fd60e01b81526001600160a01b0383811660048301529091169063b76536fd906024015b600060405180830381600087803b15801562001d4657600080fd5b505af115801562001d5b573d6000803e3d6000fd5b5050505050565b6001546001600160a01b0316331462001dae5760405162461bcd60e51b815260206004820152600d60248201526c1858d8d95cdcc819195b9a5959609a1b6044820152606401620002e8565b600254604051630c0b49c760e41b8152600481018390526001600160a01b039091169063c0b49c709060240162001d2b565b32331462001e025760405162461bcd60e51b8152600401620002e89062003444565b600254604051631c96a19760e31b8152600481018490526000916001600160a01b03169063e4b50cb89060240160206040518083038186803b15801562001e4857600080fd5b505afa15801562001e5d573d6000803e3d6000fd5b505050506040513d601f19601f8201168201806040525081019062001e83919062002f47565b60025460405163f7336fb160e01b815260048101869052602481018590529192506001600160a01b03169063f7336fb19060440160206040518083038186803b15801562001ed057600080fd5b505afa15801562001ee5573d6000803e3d6000fd5b505050506040513d601f19601f8201168201806040525081019062001f0b919062002ff3565b62001f425760405162461bcd60e51b8152600401620002e89060208082526004908201526342414e5360e01b604082015260600190565b60025460405163c3c5efaf60e01b8152600481018590526001600160a01b039091169063c3c5efaf9060240160206040518083038186803b15801562001f8757600080fd5b505afa15801562001f9c573d6000803e3d6000fd5b505050506040513d601f19601f8201168201806040525081019062001fc2919062002ff3565b62001ff65760405162461bcd60e51b8152602060048201526003602482015262414e4560e81b6044820152606401620002e8565b6002546040516330737aa960e11b815260048101859052602481018490526000916001600160a01b0316906360e6f5529060440160206040518083038186803b1580156200204357600080fd5b505afa15801562002058573d6000803e3d6000fd5b505050506040513d601f19601f820116820180604052508101906200207e919062002ff3565b6040516331a9108f60e11b8152600481018690529091506000906001600160a01b03841690636352211e9060240160206040518083038186803b158015620020c557600080fd5b505afa158015620020da573d6000803e3d6000fd5b505050506040513d601f19601f8201168201806040525081019062002100919062002f47565b600254604051634b4a39b960e01b815260048101889052602481018790529192506000916001600160a01b0390911690634b4a39b99060440160206040518083038186803b1580156200215257600080fd5b505afa15801562002167573d6000803e3d6000fd5b505050506040513d601f19601f820116820180604052508101906200218d919062002f47565b6002546040516370f3e77b60e11b815260048101899052602481018890529192506000916001600160a01b039091169063e1e7cef69060440160206040518083038186803b158015620021df57600080fd5b505afa158015620021f4573d6000803e3d6000fd5b505050506040513d601f19601f820116820180604052508101906200221a919062003211565b905083156200230f57336001600160a01b0384161415620022645760405162461bcd60e51b815260206004820152600360248201526241574360e81b6044820152606401620002e8565b62002270878762002525565b6000826001600160a01b0316826108fc90604051600060405180830381858888f193505050503d8060008114620022c4576040519150601f19603f3d011682016040523d82523d6000602084013e620022c9565b606091505b5050905080620023085760405162461bcd60e51b815260206004820152600960248201526821a721a7a1a729242160b91b6044820152606401620002e8565b5062002507565b60405163296d9a3760e21b8152600481018890526001600160a01b03848116602483015283811660448301526000919087169063a5b668dc90606401602060405180830381600087803b1580156200236657600080fd5b505af11580156200237b573d6000803e3d6000fd5b505050506040513d601f19601f82011682018060405250810190620023a1919062002ff3565b9050806200245457620023b5888862002525565b6000836001600160a01b0316836108fc90604051600060405180830381858888f193505050503d806000811462002409576040519150601f19603f3d011682016040523d82523d6000602084013e6200240e565b606091505b50509050806200244d5760405162461bcd60e51b815260206004820152600960248201526821a721a7a1a729242160b91b6044820152606401620002e8565b5062002505565b6200246188888662002748565b600254604051637fd3924760e01b8152600481018a90526001600160a01b03858116602483015290911690637fd3924790604401600060405180830381600087803b158015620024b057600080fd5b505af1158015620024c5573d6000803e3d6000fd5b50505050620024d5888862002525565b6040518790899033907ff9226daf630542048a23086c6af599511aac100ec8f532793cc9697d061bed7e90600090a45b505b50505050505050565b60006200251e82846200378c565b9392505050565b600254604051633f1e72fb60e11b815260048101849052600060248201526001600160a01b0390911690637e3ce5f690604401600060405180830381600087803b1580156200257357600080fd5b505af115801562002588573d6000803e3d6000fd5b505060025460405163191d469360e31b81526004810186905260248101859052600160448201526001600160a01b03909116925063c8ea34989150606401600060405180830381600087803b158015620025e157600080fd5b505af1158015620025f6573d6000803e3d6000fd5b5050600254604051631877d75b60e11b81526004810186905260248101859052600060448201526001600160a01b0390911692506330efaeb69150606401600060405180830381600087803b1580156200264f57600080fd5b505af115801562002664573d6000803e3d6000fd5b505060025460405163132b3edb60e11b81526004810186905260248101859052600060448201526001600160a01b0390911692506326567db69150606401600060405180830381600087803b158015620026bd57600080fd5b505af1158015620026d2573d6000803e3d6000fd5b505060025460405163d2aa418760e01b81526004810186905260248101859052600060448201526001600160a01b03909116925063d2aa41879150606401600060405180830381600087803b1580156200272b57600080fd5b505af115801562002740573d6000803e3d6000fd5b505050505050565b3233146200276a5760405162461bcd60e51b8152600401620002e89062003444565b600254604051631c96a19760e31b8152600481018590526000916001600160a01b03169063e4b50cb89060240160206040518083038186803b158015620027b057600080fd5b505afa158015620027c5573d6000803e3d6000fd5b505050506040513d601f19601f82011682018060405250810190620027eb919062002f47565b6002546040516370f3e77b60e11b815260048101879052602481018690529192506000916001600160a01b039091169063e1e7cef69060440160206040518083038186803b1580156200283d57600080fd5b505afa15801562002852573d6000803e3d6000fd5b505050506040513d601f19601f8201168201806040525081019062002878919062003211565b90508062002887575050505050565b60025460405163d2aa418760e01b81526004810187905260248101869052600060448201526001600160a01b039091169063d2aa418790606401600060405180830381600087803b158015620028dc57600080fd5b505af1158015620028f1573d6000803e3d6000fd5b505050506000600260009054906101000a90046001600160a01b03166001600160a01b031663e16d536c6040518163ffffffff1660e01b815260040160206040518083038186803b1580156200294657600080fd5b505afa1580156200295b573d6000803e3d6000fd5b505050506040513d601f19601f8201168201806040525081019062002981919062003211565b90506000600260009054906101000a90046001600160a01b03166001600160a01b031663c8f77edf6040518163ffffffff1660e01b815260040160206040518083038186803b158015620029d457600080fd5b505afa158015620029e9573d6000803e3d6000fd5b505050506040513d601f19601f8201168201806040525081019062002a0f919062003211565b9050846001600160a01b0316846001600160a01b031663525564216040518163ffffffff1660e01b815260040160206040518083038186803b15801562002a5557600080fd5b505afa15801562002a6a573d6000803e3d6000fd5b505050506040513d601f19601f8201168201806040525081019062002a90919062002f47565b6001600160a01b0316141562002aa4575060005b600062002abf606462002ab8858762002dc3565b9062002dd1565b9050600062002ad5606462002ab8858862002dc3565b905062002aef8162002ae8878562002510565b9062002510565b94506000811562002c0257866001600160a01b031663525564216040518163ffffffff1660e01b815260040160206040518083038186803b15801562002b3457600080fd5b505afa15801562002b49573d6000803e3d6000fd5b505050506040513d601f19601f8201168201806040525081019062002b6f919062002f47565b6001600160a01b0316826108fc90604051600060405180830381858888f193505050503d806000811462002bc0576040519150601f19603f3d011682016040523d82523d6000602084013e62002bc5565b606091505b5050809150508062002c025760405162461bcd60e51b8152602060048201526005602482015264434e53544960d81b6044820152606401620002e8565b821562002d2857600260009054906101000a90046001600160a01b03166001600160a01b031663abd67b0a6040518163ffffffff1660e01b815260040160206040518083038186803b15801562002c5857600080fd5b505afa15801562002c6d573d6000803e3d6000fd5b505050506040513d601f19601f8201168201806040525081019062002c93919062002f47565b6001600160a01b0316836108fc90604051600060405180830381858888f193505050503d806000811462002ce4576040519150601f19603f3d011682016040523d82523d6000602084013e62002ce9565b606091505b5050809150508062002d285760405162461bcd60e51b815260206004820152600760248201526610d394d516139160ca1b6044820152606401620002e8565b6040516001600160a01b038916906108fc9088906000818181858888f193505050503d806000811462002d78576040519150601f19603f3d011682016040523d82523d6000602084013e62002d7d565b606091505b5050809150508062002db75760405162461bcd60e51b81526020600482015260026024820152612ba360f11b6044820152606401620002e8565b50505050505050505050565b60006200251e82846200376a565b60006200251e828462003749565b6118af806200381f83390190565b805162002dfa8162003805565b919050565b600082601f83011262002e10578081fd5b8151602062002e2962002e2383620036f7565b620036c3565b80838252828201915082860187848660051b890101111562002e49578586fd5b855b8581101562002e7457815162002e618162003805565b8452928401929084019060010162002e4b565b5090979650505050505050565b600082601f83011262002e92578081fd5b8151602062002ea562002e2383620036f7565b80838252828201915082860187848660051b890101111562002ec5578586fd5b855b8581101562002e745781518452928401929084019060010162002ec7565b8051801515811462002dfa57600080fd5b600082601f83011262002f07578081fd5b813562002f1862002e23826200371e565b81815284602083860101111562002f2d578283fd5b816020850160208301379081016020019190915292915050565b60006020828403121562002f59578081fd5b81516200251e8162003805565b60006020828403121562002f78578081fd5b81356200251e8162003805565b60006020828403121562002f97578081fd5b815167ffffffffffffffff81111562002fae578182fd5b6200083b8482850162002dff565b60006020828403121562002fce578081fd5b815167ffffffffffffffff81111562002fe5578182fd5b6200083b8482850162002e81565b60006020828403121562003005578081fd5b6200251e8262002ee5565b60006020828403121562003022578081fd5b815167ffffffffffffffff81111562003039578182fd5b8201601f810184136200304a578182fd5b80516200305b62002e23826200371e565b81815285602083850101111562003070578384fd5b62003083826020830160208601620037a6565b95945050505050565b6000602082840312156200309e578081fd5b815167ffffffffffffffff80821115620030b6578283fd5b908301906102008286031215620030cb578283fd5b620030d562003696565b8251815260208301516020820152620030f16040840162002ded565b6040820152606083015160608201526080830151608082015260a083015160a082015260c083015160c08201526200312c60e0840162002ded565b60e082015261010083810151908201526101206200314c81850162002ee5565b90820152610140838101519082015261016080840151838111156200316f578586fd5b6200317d8882870162002dff565b828401525050610180808401518381111562003197578586fd5b620031a58882870162002e81565b8284015250506101a09150620031bd82840162002ee5565b828201526101c09150620031d382840162002ee5565b828201526101e09150620031e982840162002ee5565b91810191909152949350505050565b6000602082840312156200320a578081fd5b5035919050565b60006020828403121562003223578081fd5b5051919050565b600080600080600060a0868803121562003242578081fd5b853594506020860135620032568162003805565b9350604086013567ffffffffffffffff8082111562003273578283fd5b6200328189838a0162002ef6565b9450606088013591508082111562003297578283fd5b620032a589838a0162002ef6565b93506080880135915080821115620032bb578283fd5b50620032ca8882890162002ef6565b9150509295509295909350565b60008060408385031215620032ea578182fd5b50508035926020909101359150565b600080600080600080600060e0888a03121562003314578485fd5b505085359760208701359750604087013596606081013596506080810135955060a0810135945060c0013592509050565b6000815180845260208085019450808401835b838110156200337f5781516001600160a01b03168752958201959082019060010162003358565b509495945050505050565b6000815180845260208085019450808401835b838110156200337f578151875295820195908201906001016200339d565b60008151808452620033d5816020860160208601620037a6565b601f01601f19169290920160200192915050565b6001600160a01b03851681526080602082018190526000906200340f90830186620033bb565b8281036040840152620034238186620033bb565b90508281036060840152620034398185620033bb565b979650505050505050565b602080825260039082015262454f4160e81b604082015260600190565b6020808252601f908201527f5265656e7472616e637947756172643a207265656e7472616e742063616c6c00604082015260600190565b602081528151602082015260006020830151620034c060408401826001600160a01b03169052565b5060408301516001600160a01b03811660608401525060608301516001600160a01b03811660808401525060808301516101208060a085015262003509610140850183620033bb565b915060a0850151601f198584030160c0860152620035288382620033bb565b92505060c08501516200353f60e086018215159052565b5060e0850151610100620035568187018315159052565b959095015193019290925250919050565b602081528151602082015260208201516040820152600060408301516200359960608401826001600160a01b03169052565b5060608301516080830152608083015160a083015260a083015160c083015260c083015160e083015260e0830151610100620035df818501836001600160a01b03169052565b840151610120848101919091528401519050610140620036028185018315159052565b84015161016084810191909152840151610200610180808601829052919250906200363261022086018462003345565b92508086015190506101a0601f1986850301818701526200365484836200338a565b9350808701519150506101c06200366e8187018315159052565b86015190506101e0620036848682018315159052565b90950151151593019290925250919050565b604051610200810167ffffffffffffffff81118282101715620036bd57620036bd620037ef565b60405290565b604051601f8201601f1916810167ffffffffffffffff81118282101715620036ef57620036ef620037ef565b604052919050565b600067ffffffffffffffff821115620037145762003714620037ef565b5060051b60200190565b600067ffffffffffffffff8211156200373b576200373b620037ef565b50601f01601f191660200190565b6000826200376557634e487b7160e01b81526012600452602481fd5b500490565b6000816000190483118215151615620037875762003787620037d9565b500290565b600082821015620037a157620037a1620037d9565b500390565b60005b83811015620037c3578181015183820152602001620037a9565b83811115620037d3576000848401525b50505050565b634e487b7160e01b600052601160045260246000fd5b634e487b7160e01b600052604160045260246000fd5b6001600160a01b03811681146200381b57600080fd5b5056fe60806040523480156200001157600080fd5b50604051620018af380380620018af833981016040819052620000349162000214565b8151829082906200004d906000906020850190620000bb565b50805162000063906001906020840190620000bb565b505083516200007b91506009906020860190620000bb565b5050600680546001600160a01b039094166001600160a01b0319948516811790915560078054851690911790555050600880549091163317905562000314565b828054620000c990620002c1565b90600052602060002090601f016020900481019282620000ed576000855562000138565b82601f106200010857805160ff191683800117855562000138565b8280016001018555821562000138579182015b82811115620001385782518255916020019190600101906200011b565b50620001469291506200014a565b5090565b5b808211156200014657600081556001016200014b565b600082601f83011262000172578081fd5b81516001600160401b03808211156200018f576200018f620002fe565b604051601f8301601f19908116603f01168101908282118183101715620001ba57620001ba620002fe565b81604052838152602092508683858801011115620001d6578485fd5b8491505b83821015620001f95785820183015181830184015290820190620001da565b838211156200020a57848385830101525b9695505050505050565b600080600080608085870312156200022a578384fd5b84516001600160a01b038116811462000241578485fd5b60208601519094506001600160401b03808211156200025e578485fd5b6200026c8883890162000161565b9450604087015191508082111562000282578384fd5b620002908883890162000161565b93506060870151915080821115620002a6578283fd5b50620002b58782880162000161565b91505092959194509250565b600181811c90821680620002d657607f821691505b60208210811415620002f857634e487b7160e01b600052602260045260246000fd5b50919050565b634e487b7160e01b600052604160045260246000fd5b61158b80620003246000396000f3fe608060405234801561001057600080fd5b506004361061010b5760003560e01c806370a08231116100a2578063a5b668dc11610071578063a5b668dc14610226578063b88d4fde14610239578063c87b56dd1461024c578063d44c1a9f1461025f578063e985e9c51461027257600080fd5b806370a08231146101d757806395d89b41146101f8578063a0712d6814610200578063a22cb4651461021357600080fd5b806323b872dd116100de57806323b872dd1461018d57806342842e0e146101a057806352556421146101b35780636352211e146101c457600080fd5b806301ffc9a71461011057806306fdde0314610138578063081812fc1461014d578063095ea7b314610178575b600080fd5b61012361011e36600461120a565b6102ae565b60405190151581526020015b60405180910390f35b610140610300565b60405161012f919061132d565b61016061015b366004611242565b610392565b6040516001600160a01b03909116815260200161012f565b61018b6101863660046111e1565b61042c565b005b61018b61019b366004611097565b610542565b61018b6101ae366004611097565b610573565b6007546001600160a01b0316610160565b6101606101d2366004611242565b61058e565b6101ea6101e536600461104b565b610605565b60405190815260200161012f565b61014061068c565b61012361020e366004611242565b61069b565b61018b6102213660046111a7565b6106ef565b61012361023436600461125a565b6106fe565b61018b6102473660046110d2565b610766565b61014061025a366004611242565b61079e565b61018b61026d366004611242565b610879565b610123610280366004611065565b6001600160a01b03918216600090815260056020908152604080832093909416825291909152205460ff1690565b60006001600160e01b031982166380ac58cd60e01b14806102df57506001600160e01b03198216635b5e139f60e01b145b806102fa57506301ffc9a760e01b6001600160e01b03198316145b92915050565b60606000805461030f90611493565b80601f016020809104026020016040519081016040528092919081815260200182805461033b90611493565b80156103885780601f1061035d57610100808354040283529160200191610388565b820191906000526020600020905b81548152906001019060200180831161036b57829003601f168201915b5050505050905090565b6000818152600260205260408120546001600160a01b03166104105760405162461bcd60e51b815260206004820152602c60248201527f4552433732313a20617070726f76656420717565727920666f72206e6f6e657860448201526b34b9ba32b73a103a37b5b2b760a11b60648201526084015b60405180910390fd5b506000908152600460205260409020546001600160a01b031690565b60006104378261058e565b9050806001600160a01b0316836001600160a01b031614156104a55760405162461bcd60e51b815260206004820152602160248201527f4552433732313a20617070726f76616c20746f2063757272656e74206f776e656044820152603960f91b6064820152608401610407565b336001600160a01b03821614806104c157506104c18133610280565b6105335760405162461bcd60e51b815260206004820152603860248201527f4552433732313a20617070726f76652063616c6c6572206973206e6f74206f7760448201527f6e6572206e6f7220617070726f76656420666f7220616c6c00000000000000006064820152608401610407565b61053d83836108b0565b505050565b61054c338261091e565b6105685760405162461bcd60e51b8152600401610407906113d3565b61053d838383610a15565b61053d83838360405180602001604052806000815250610766565b6000818152600260205260408120546001600160a01b0316806102fa5760405162461bcd60e51b815260206004820152602960248201527f4552433732313a206f776e657220717565727920666f72206e6f6e657869737460448201526832b73a103a37b5b2b760b91b6064820152608401610407565b60006001600160a01b0382166106705760405162461bcd60e51b815260206004820152602a60248201527f4552433732313a2062616c616e636520717565727920666f7220746865207a65604482015269726f206164647265737360b01b6064820152608401610407565b506001600160a01b031660009081526003602052604090205490565b60606001805461030f90611493565b6008546000906001600160a01b031633146106c85760405162461bcd60e51b815260040161040790611392565b6006546106de906001600160a01b031683610bb5565b6106e782610879565b506001919050565b6106fa338383610cf7565b5050565b6008546000906001600160a01b0316331461072b5760405162461bcd60e51b815260040161040790611392565b610736838386610573565b61073f84610879565b50600680546001600160a01b0383166001600160a01b031990911617905560019392505050565b610770338361091e565b61078c5760405162461bcd60e51b8152600401610407906113d3565b61079884848484610dc6565b50505050565b6000818152600260205260409020546060906001600160a01b031661081d5760405162461bcd60e51b815260206004820152602f60248201527f4552433732314d657461646174613a2055524920717565727920666f72206e6f60448201526e3732bc34b9ba32b73a103a37b5b2b760891b6064820152608401610407565b6000610827610df9565b905060008151116108475760405180602001604052806000815250610872565b8061085184610e08565b6040516020016108629291906112c1565b6040516020818303038152906040525b9392505050565b6008546001600160a01b031633146108a35760405162461bcd60e51b815260040161040790611392565b6108ad33826108b0565b50565b600081815260046020526040902080546001600160a01b0319166001600160a01b03841690811790915581906108e58261058e565b6001600160a01b03167f8c5be1e5ebec7d5bd14f71427d1e84f3dd0314c0f7b2291e5b200ac8c7c3b92560405160405180910390a45050565b6000818152600260205260408120546001600160a01b03166109975760405162461bcd60e51b815260206004820152602c60248201527f4552433732313a206f70657261746f7220717565727920666f72206e6f6e657860448201526b34b9ba32b73a103a37b5b2b760a11b6064820152608401610407565b60006109a28361058e565b9050806001600160a01b0316846001600160a01b031614806109dd5750836001600160a01b03166109d284610392565b6001600160a01b0316145b80610a0d57506001600160a01b0380821660009081526005602090815260408083209388168352929052205460ff165b949350505050565b826001600160a01b0316610a288261058e565b6001600160a01b031614610a905760405162461bcd60e51b815260206004820152602960248201527f4552433732313a207472616e73666572206f6620746f6b656e2074686174206960448201526839903737ba1037bbb760b91b6064820152608401610407565b6001600160a01b038216610af25760405162461bcd60e51b8152602060048201526024808201527f4552433732313a207472616e7366657220746f20746865207a65726f206164646044820152637265737360e01b6064820152608401610407565b610afd6000826108b0565b6001600160a01b0383166000908152600360205260408120805460019290610b26908490611450565b90915550506001600160a01b0382166000908152600360205260408120805460019290610b54908490611424565b909155505060008181526002602052604080822080546001600160a01b0319166001600160a01b0386811691821790925591518493918716917fddf252ad1be2c89b69c2b068fc378daa952ba7f163c4a11628f55a4df523b3ef91a4505050565b6001600160a01b038216610c0b5760405162461bcd60e51b815260206004820181905260248201527f4552433732313a206d696e7420746f20746865207a65726f20616464726573736044820152606401610407565b6000818152600260205260409020546001600160a01b031615610c705760405162461bcd60e51b815260206004820152601c60248201527f4552433732313a20746f6b656e20616c7265616479206d696e746564000000006044820152606401610407565b6001600160a01b0382166000908152600360205260408120805460019290610c99908490611424565b909155505060008181526002602052604080822080546001600160a01b0319166001600160a01b03861690811790915590518392907fddf252ad1be2c89b69c2b068fc378daa952ba7f163c4a11628f55a4df523b3ef908290a45050565b816001600160a01b0316836001600160a01b03161415610d595760405162461bcd60e51b815260206004820152601960248201527f4552433732313a20617070726f766520746f2063616c6c6572000000000000006044820152606401610407565b6001600160a01b03838116600081815260056020908152604080832094871680845294825291829020805460ff191686151590811790915591519182527f17307eab39ab6107e8899845ad3d59bd9653f200f220920489ca2b5937696c31910160405180910390a3505050565b610dd1848484610a15565b610ddd84848484610f22565b6107985760405162461bcd60e51b815260040161040790611340565b60606009805461030f90611493565b606081610e2c5750506040805180820190915260018152600360fc1b602082015290565b8160005b8115610e565780610e40816114ce565b9150610e4f9050600a8361143c565b9150610e30565b60008167ffffffffffffffff811115610e7f57634e487b7160e01b600052604160045260246000fd5b6040519080825280601f01601f191660200182016040528015610ea9576020820181803683370190505b5090505b8415610a0d57610ebe600183611450565b9150610ecb600a866114e9565b610ed6906030611424565b60f81b818381518110610ef957634e487b7160e01b600052603260045260246000fd5b60200101906001600160f81b031916908160001a905350610f1b600a8661143c565b9450610ead565b60006001600160a01b0384163b1561102457604051630a85bd0160e11b81526001600160a01b0385169063150b7a0290610f669033908990889088906004016112f0565b602060405180830381600087803b158015610f8057600080fd5b505af1925050508015610fb0575060408051601f3d908101601f19168201909252610fad91810190611226565b60015b61100a573d808015610fde576040519150601f19603f3d011682016040523d82523d6000602084013e610fe3565b606091505b5080516110025760405162461bcd60e51b815260040161040790611340565b805181602001fd5b6001600160e01b031916630a85bd0160e11b149050610a0d565b506001949350505050565b80356001600160a01b038116811461104657600080fd5b919050565b60006020828403121561105c578081fd5b6108728261102f565b60008060408385031215611077578081fd5b6110808361102f565b915061108e6020840161102f565b90509250929050565b6000806000606084860312156110ab578081fd5b6110b48461102f565b92506110c26020850161102f565b9150604084013590509250925092565b600080600080608085870312156110e7578081fd5b6110f08561102f565b93506110fe6020860161102f565b925060408501359150606085013567ffffffffffffffff80821115611121578283fd5b818701915087601f830112611134578283fd5b81358181111561114657611146611529565b604051601f8201601f19908116603f0116810190838211818310171561116e5761116e611529565b816040528281528a6020848701011115611186578586fd5b82602086016020830137918201602001949094529598949750929550505050565b600080604083850312156111b9578182fd5b6111c28361102f565b9150602083013580151581146111d6578182fd5b809150509250929050565b600080604083850312156111f3578182fd5b6111fc8361102f565b946020939093013593505050565b60006020828403121561121b578081fd5b81356108728161153f565b600060208284031215611237578081fd5b81516108728161153f565b600060208284031215611253578081fd5b5035919050565b60008060006060848603121561126e578283fd5b8335925061127e6020850161102f565b915061128c6040850161102f565b90509250925092565b600081518084526112ad816020860160208601611467565b601f01601f19169290920160200192915050565b600083516112d3818460208801611467565b8351908301906112e7818360208801611467565b01949350505050565b6001600160a01b038581168252841660208201526040810183905260806060820181905260009061132390830184611295565b9695505050505050565b6020815260006108726020830184611295565b60208082526032908201527f4552433732313a207472616e7366657220746f206e6f6e20455243373231526560408201527131b2b4bb32b91034b6b83632b6b2b73a32b960711b606082015260800190565b60208082526021908201527f4f6e6c792061646d696e2063616e2063616c6c207468697320636f6e747261636040820152601d60fa1b606082015260800190565b60208082526031908201527f4552433732313a207472616e736665722063616c6c6572206973206e6f74206f6040820152701ddb995c881b9bdc88185c1c1c9bdd9959607a1b606082015260800190565b60008219821115611437576114376114fd565b500190565b60008261144b5761144b611513565b500490565b600082821015611462576114626114fd565b500390565b60005b8381101561148257818101518382015260200161146a565b838111156107985750506000910152565b600181811c908216806114a757607f821691505b602082108114156114c857634e487b7160e01b600052602260045260246000fd5b50919050565b60006000198214156114e2576114e26114fd565b5060010190565b6000826114f8576114f8611513565b500690565b634e487b7160e01b600052601160045260246000fd5b634e487b7160e01b600052601260045260246000fd5b634e487b7160e01b600052604160045260246000fd5b6001600160e01b0319811681146108ad57600080fdfea26469706673582212207e92c6869ea28df2dd4e278ad18d911cc1d861eb98058a50322de03a6f303a7e64736f6c63430008040033a26469706673582212208f0e2fd1c6f0e9516c9b5be5c39645c8e722a76ef1540a2790b8d925fc7bf7be64736f6c63430008040033",
  "linkReferences": {},
  "deployedLinkReferences": {}
}